:020000040800F2
:1000000000000120150400086504000865040008CC
:10001000650400086504000865040008000000008D
:10002000000000000000000000000000650400085F
:10003000650400080000000065040008650400086D
:10004000000000006504000865040008650400085D
:1000500065040008650400086504000865040008DC
:1000600065040008650400086504000865040008CC
:1000700065040008650400086504000865040008BC
:10008000650400086504000865040008000000001D
:1000900000000000000000000000000065040008EF
:1000A000650400086504000865040008650400088C
:1000B000650400086504000865040008650400087C
:1000C000650400086504000865040008650400086C
:1000D00065040008650400086504000800000000CD
:1000E00065040008650400086504000800000000BD
:1000F000000000000000000000000000650400088F
:10010000000000006504000865040008650400089C
:1001100000000000000000000000000000000000DF
:10012000650400086504000865040008650400080B
:10013000650400080000000000000000000000004E
:10014000000000000000000000000000650400083E
:1001500065040008650400086504000865040008DB
:1001600065040008650400080000000000000000AD
:10017000000000000000000000000000000000007F
:10018000000000000000000000000000000000006F
:0401900065040008FA
:1001940010B5054C237833B9044B13B10448AFF3BD
:1001A40000800123237010BD000000200000000027
:1001B400B004000808B5034B1BB103490348AFF36F
:1001C400008008BD0000000004000020B004000806
:1001D40090B48CB000AF8A4B1B6B894A43F0010387
:1001E4001363874B1B6B864A43F002031363854BEF
:1001F4001B68844A23F003031360824BDB68814A43
:1002040043F00103D3607F4B1B687E4A23F00C0349
:1002140013607C4BDB687B4A43F00403D360794B67
:100224001B68784A23F030031360764BDB68754A09
:1002340043F01003D360734B1B68724A23F0C0036E
:100244001360704BDB686F4A43F04003D3606D4B1F
:100254001B686C4A23F4407313606A4BDB68694A79
:1002640043F48073D360684B1B68674A23F003032D
:100274001360654B1B68644A43F001031360624BCF
:100284001B68614A23F00C0313605F4B1B685E4AD2
:1002940043F0040313605C4B1B685B4A23F0300398
:1002A4001360594B1B68584A43F010031360574BB3
:1002B40007F118040FCB84E80F0007F108030022AC
:1002C4001A605A609A60DA600023FB624D4B1B6926
:1002D40003F00103002B10D1FB6A5A1CFA629B0045
:1002E40030333B44012243F8282C00BF454B1B69A3
:1002F40003F00103002BF9D043E0424B1B6903F0E8
:100304000203002B10D1FB6A5A1CFA629B003033A3
:100314003B44022243F8282C00BF3A4B1B6903F0EC
:100324000203002BF9D02CE0364B1B6903F00403C5
:10033400002B10D1FB6A5A1CFA629B0030333B44F9
:10034400032243F8282C00BF2E4B1B6903F004033F
:10035400002BF9D015E02B4B1B6903F00803002B8D
:100364000FD1FB6A5A1CFA629B0030333B440422CF
:1003740043F8282C00BF234B1B6903F00803002B10
:10038400F9D0FB6A042B33D10123BB6200237B60C9
:1003940013E07B689B0030333B4453F8282C7B6884
:1003A4009B0030333B4453F8183C9A4202D000235C
:1003B400BB6205E07B6801337B607B68032BE8DD6F
:1003C400BB6A002B06D0104B5B690F4A43F0010354
:1003D40053610BE00C4B5B690B4A43F0020353611E
:1003E400094B5B69084A43F0040353610023FB6231
:1003F400044B1B69034A43F01003136166E700BF13
:10040400003802400000024000040240C804000812
:100414000D488546AFF300800C480D490D4A002372
:1004240002E0D458C4500433C4188C42F9D30A4AA5
:100434000A4C002301E013600432A242FBD300F013
:1004440011F8FFF7C5FEFEE70000012000000020C0
:1004540000000020E0040008000000201C00002030
:10046400FEE7000070B50D4D0D4C641BA410002672
:10047400A64209D10B4D0C4C00F018F8641BA410D3
:100484000026A64205D170BD55F8043B98470136B5
:10049400EEE755F8043B98470136F2E7D804000824
:1004A400D8040008D8040008DC040008F8B500BF2C
:1004B400F8BC08BC9E467047F8B500BFF8BC08BC41
:0404C4009E46704799
:1004C800010000000300000002000000040000001A
:0404D800B90100085E
:0404DC00950100087E
:0400000508000415D6
:00000001FF
